{
  "contractName": "AIModelMarketplace",
  "abi": [
    {
      "inputs": [],
      "name": "modelCount",
      "outputs": [
        {
          "internalType": "uint256",
          "name": "",
          "type": "uint256"
        }
      ],
      "stateMutability": "view",
      "type": "function",
      "constant": true
    },
    {
      "inputs": [
        {
          "internalType": "uint256",
          "name": "",
          "type": "uint256"
        }
      ],
      "name": "models",
      "outputs": [
        {
          "internalType": "string",
          "name": "name",
          "type": "string"
        },
        {
          "internalType": "string",
          "name": "description",
          "type": "string"
        },
        {
          "internalType": "uint256",
          "name": "price",
          "type": "uint256"
        },
        {
          "internalType": "address payable",
          "name": "creator",
          "type": "address"
        },
        {
          "internalType": "uint16",
          "name": "totalRating",
          "type": "uint16"
        },
        {
          "internalType": "uint16",
          "name": "numberOfRatings",
          "type": "uint16"
        }
      ],
      "stateMutability": "view",
      "type": "function",
      "constant": true
    },
    {
      "inputs": [
        {
          "internalType": "uint256",
          "name": "",
          "type": "uint256"
        },
        {
          "internalType": "address",
          "name": "",
          "type": "address"
        }
      ],
      "name": "purchasers",
      "outputs": [
        {
          "internalType": "bool",
          "name": "",
          "type": "bool"
        }
      ],
      "stateMutability": "view",
      "type": "function",
      "constant": true
    },
    {
      "inputs": [
        {
          "internalType": "string",
          "name": "_name",
          "type": "string"
        },
        {
          "internalType": "string",
          "name": "_description",
          "type": "string"
        },
        {
          "internalType": "uint256",
          "name": "_price",
          "type": "uint256"
        }
      ],
      "name": "listModel",
      "outputs": [],
      "stateMutability": "nonpayable",
      "type": "function"
    },
    {
      "inputs": [
        {
          "internalType": "uint256",
          "name": "_modelId",
          "type": "uint256"
        }
      ],
      "name": "purchaseModel",
      "outputs": [],
      "stateMutability": "payable",
      "type": "function",
      "payable": true
    },
    {
      "inputs": [
        {
          "internalType": "uint256",
          "name": "_modelId",
          "type": "uint256"
        },
        {
          "internalType": "uint8",
          "name": "_rating",
          "type": "uint8"
        }
      ],
      "name": "rateModel",
      "outputs": [],
      "stateMutability": "nonpayable",
      "type": "function"
    },
    {
      "inputs": [
        {
          "internalType": "uint256",
          "name": "_modelId",
          "type": "uint256"
        }
      ],
      "name": "getModelDetails",
      "outputs": [
        {
          "components": [
            {
              "internalType": "string",
              "name": "name",
              "type": "string"
            },
            {
              "internalType": "string",
              "name": "description",
              "type": "string"
            },
            {
              "internalType": "uint256",
              "name": "price",
              "type": "uint256"
            },
            {
              "internalType": "address",
              "name": "creator",
              "type": "address"
            },
            {
              "internalType": "uint256",
              "name": "averageRating",
              "type": "uint256"
            }
          ],
          "internalType": "struct AIModelMarketplace.ModelDetails",
          "name": "",
          "type": "tuple"
        }
      ],
      "stateMutability": "view",
      "type": "function",
      "constant": true
    },
    {
      "inputs": [],
      "name": "withdrawFunds",
      "outputs": [],
      "stateMutability": "nonpayable",
      "type": "function"
    }
  ],
  "bytecode": "0x6080604052600060025534801561001557600080fd5b506118aa806100256000396000f3fe60806040526004361061007b5760003560e01c806331fc042f1161004e57806331fc042f146101265780636a030ca914610163578063c6a645fe146101a5578063dc746862146101d05761007b565b806312ee1c0e14610080578063180ccf77146100a95780631c788a9a146100e657806324600fc31461010f575b600080fd5b34801561008c57600080fd5b506100a760048036038101906100a29190610dac565b6101ec565b005b3480156100b557600080fd5b506100d060048036038101906100cb9190610e54565b610409565b6040516100dd919061131c565b60405180910390f35b3480156100f257600080fd5b5061010d60048036038101906101089190610e90565b610438565b005b34801561011b57600080fd5b506101246105c2565b005b34801561013257600080fd5b5061014d60048036038101906101489190610e2b565b6106ae565b60405161015a91906114c6565b60405180910390f35b34801561016f57600080fd5b5061018a60048036038101906101859190610e2b565b6108af565b60405161019c96959493929190611337565b60405180910390f35b3480156101b157600080fd5b506101ba610a37565b6040516101c791906114e8565b60405180910390f35b6101ea60048036038101906101e59190610e2b565b610a3d565b005b6000835111610230576040517f08c379a0000000000000000000000000000000000000000000000000000000008152600401610227906113c6565b60405180910390fd5b6000825111610274576040517f08c379a000000000000000000000000000000000000000000000000000000000815260040161026b90611486565b60405180910390fd5b600081116102b7576040517f08c379a00000000000000000000000000000000000000000000000000000000081526004016102ae90611406565b60405180910390fd5b6040518060c001604052808481526020018381526020018281526020013373ffffffffffffffffffffffffffffffffffffffff168152602001600061ffff168152602001600061ffff1681525060008060025481526020019081526020016000206000820151816000019080519060200190610334929190610c1d565b506020820151816001019080519060200190610351929190610c1d565b506040820151816002015560608201518160030160006101000a81548173ffffffffffffffffffffffffffffffffffffffff021916908373ffffffffffffffffffffffffffffffffffffffff16021790555060808201518160030160146101000a81548161ffff021916908361ffff16021790555060a08201518160030160166101000a81548161ffff021916908361ffff160217905550905050600260008154809291906103ff90611719565b9190505550505050565b60016020528160005260406000206020528060005260406000206000915091509054906101000a900460ff1681565b6001600083815260200190815260200160002060003373ffffffffffffffffffffffffffffffffffffffff1673ffffffffffffffffffffffffffffffffffffffff16815260200190815260200160002060009054906101000a900460ff166104d5576040517f08c379a00000000000000000000000000000000000000000000000000000000081526004016104cc906113e6565b60405180910390fd5b60018160ff16101580156104ed575060058160ff1611155b61052c576040517f08c379a000000000000000000000000000000000000000000000000000000000815260040161052390611466565b60405180910390fd5b600080600084815260200190815260200160002090508160ff168160030160148282829054906101000a900461ffff16610566919061159c565b92506101000a81548161ffff021916908361ffff16021790555080600301601681819054906101000a900461ffff16809291906105a2906116ee565b91906101000a81548161ffff021916908361ffff16021790555050505050565b60008080815260200190815260200160002060030160009054906101000a900473ffffffffffffffffffffffffffffffffffffffff1673ffffffffffffffffffffffffffffffffffffffff163373ffffffffffffffffffffffffffffffffffffffff1614610665576040517f08c379a000000000000000000000000000000000000000000000000000000000815260040161065c906113a6565b60405180910390fd5b3373ffffffffffffffffffffffffffffffffffffffff166108fc479081150290604051600060405180830381858888f193505050501580156106ab573d6000803e3d6000fd5b50565b6106b6610ca3565b600080600084815260200190815260200160002090506000808260030160169054906101000a900461ffff1661ffff16116106f2576000610723565b8160030160169054906101000a900461ffff168260030160149054906101000a900461ffff1661072291906115d4565b5b61ffff1690506040518060a00160405280836000018054610743906116bc565b80601f016020809104026020016040519081016040528092919081815260200182805461076f906116bc565b80156107bc5780601f10610791576101008083540402835291602001916107bc565b820191906000526020600020905b81548152906001019060200180831161079f57829003601f168201915b505050505081526020018360010180546107d5906116bc565b80601f0160208091040260200160405190810160405280929190818152602001828054610801906116bc565b801561084e5780601f106108235761010080835404028352916020019161084e565b820191906000526020600020905b81548152906001019060200180831161083157829003601f168201915b50505050508152602001836002015481526020018360030160009054906101000a900473ffffffffffffffffffffffffffffffffffffffff1673ffffffffffffffffffffffffffffffffffffffff1681526020018281525092505050919050565b60006020528060005260406000206000915090508060000180546108d2906116bc565b80601f01602080910402602001604051908101604052809291908181526020018280546108fe906116bc565b801561094b5780601f106109205761010080835404028352916020019161094b565b820191906000526020600020905b81548152906001019060200180831161092e57829003601f168201915b505050505090806001018054610960906116bc565b80601f016020809104026020016040519081016040528092919081815260200182805461098c906116bc565b80156109d95780601f106109ae576101008083540402835291602001916109d9565b820191906000526020600020905b8154815290600101906020018083116109bc57829003601f168201915b5050505050908060020154908060030160009054906101000a900473ffffffffffffffffffffffffffffffffffffffff16908060030160149054906101000a900461ffff16908060030160169054906101000a900461ffff16905086565b60025481565b6000806000838152602001908152602001600020905080600201543414610a99576040517f08c379a0000000000000000000000000000000000000000000000000000000008152600401610a9090611446565b60405180910390fd5b6000816002015411610ae0576040517f08c379a0000000000000000000000000000000000000000000000000000000008152600401610ad7906114a6565b60405180910390fd5b600180600084815260200190815260200160002060003373ffffffffffffffffffffffffffffffffffffffff1673ffffffffffffffffffffffffffffffffffffffff16815260200190815260200160002060006101000a81548160ff02191690831515021790555060008160030160009054906101000a900473ffffffffffffffffffffffffffffffffffffffff1673ffffffffffffffffffffffffffffffffffffffff1634604051610b9290611307565b60006040518083038185875af1925050503d8060008114610bcf576040519150601f19603f3d011682016040523d82523d6000602084013e610bd4565b606091505b5050905080610c18576040517f08c379a0000000000000000000000000000000000000000000000000000000008152600401610c0f90611426565b60405180910390fd5b505050565b828054610c29906116bc565b90600052602060002090601f016020900481019282610c4b5760008555610c92565b82601f10610c6457805160ff1916838001178555610c92565b82800160010185558215610c92579182015b82811115610c91578251825591602001919060010190610c76565b5b509050610c9f9190610ce8565b5090565b6040518060a00160405280606081526020016060815260200160008152602001600073ffffffffffffffffffffffffffffffffffffffff168152602001600081525090565b5b80821115610d01576000816000905550600101610ce9565b5090565b6000610d18610d1384611534565b611503565b905082815260208101848484011115610d3057600080fd5b610d3b84828561167a565b509392505050565b600081359050610d528161182f565b92915050565b600082601f830112610d6957600080fd5b8135610d79848260208601610d05565b91505092915050565b600081359050610d9181611846565b92915050565b600081359050610da68161185d565b92915050565b600080600060608486031215610dc157600080fd5b600084013567ffffffffffffffff811115610ddb57600080fd5b610de786828701610d58565b935050602084013567ffffffffffffffff811115610e0457600080fd5b610e1086828701610d58565b9250506040610e2186828701610d82565b9150509250925092565b600060208284031215610e3d57600080fd5b6000610e4b84828501610d82565b91505092915050565b60008060408385031215610e6757600080fd5b6000610e7585828601610d82565b9250506020610e8685828601610d43565b9150509250929050565b60008060408385031215610ea357600080fd5b6000610eb185828601610d82565b9250506020610ec285828601610d97565b9150509250929050565b610ed581611617565b82525050565b610ee481611605565b82525050565b610ef381611629565b82525050565b6000610f0482611564565b610f0e818561157a565b9350610f1e818560208601611689565b610f278161181e565b840191505092915050565b6000610f3d82611564565b610f47818561158b565b9350610f57818560208601611689565b610f608161181e565b840191505092915050565b6000610f78602a8361158b565b91507f4f6e6c792074686520636f6e7472616374206f776e65722063616e207769746860008301527f647261772066756e6473000000000000000000000000000000000000000000006020830152604082019050919050565b6000610fde601a8361158b565b91507f4d6f64656c206e616d652063616e6e6f7420626520656d7074790000000000006000830152602082019050919050565b600061101e602c8361158b565b91507f596f75206d75737420707572636861736520746865206d6f64656c206265666f60008301527f726520726174696e6720697400000000000000000000000000000000000000006020830152604082019050919050565b600061108460258361158b565b91507f4d6f64656c207072696365206d7573742062652067726561746572207468616e60008301527f207a65726f0000000000000000000000000000000000000000000000000000006020830152604082019050919050565b60006110ea60148361158b565b91507f4661696c656420746f2073656e642045746865720000000000000000000000006000830152602082019050919050565b600061112a60188361158b565b91507f496e636f7272656374207061796d656e7420616d6f756e7400000000000000006000830152602082019050919050565b600061116a601e8361158b565b91507f526174696e67206d757374206265206265747765656e203120616e64203500006000830152602082019050919050565b60006111aa60218361158b565b91507f4d6f64656c206465736372697074696f6e2063616e6e6f7420626520656d707460008301527f79000000000000000000000000000000000000000000000000000000000000006020830152604082019050919050565b600061121060008361156f565b9150600082019050919050565b600061122a60208361158b565b91507f4d6f64656c206e6f7420666f756e64206f72207072696365206e6f74207365746000830152602082019050919050565b600060a083016000830151848203600086015261127a8282610ef9565b915050602083015184820360208601526112948282610ef9565b91505060408301516112a960408601826112e9565b5060608301516112bc6060860182610edb565b5060808301516112cf60808601826112e9565b508091505092915050565b6112e381611635565b82525050565b6112f281611663565b82525050565b61130181611663565b82525050565b600061131282611203565b9150819050919050565b60006020820190506113316000830184610eea565b92915050565b600060c08201905081810360008301526113518189610f32565b905081810360208301526113658188610f32565b905061137460408301876112f8565b6113816060830186610ecc565b61138e60808301856112da565b61139b60a08301846112da565b979650505050505050565b600060208201905081810360008301526113bf81610f6b565b9050919050565b600060208201905081810360008301526113df81610fd1565b9050919050565b600060208201905081810360008301526113ff81611011565b9050919050565b6000602082019050818103600083015261141f81611077565b9050919050565b6000602082019050818103600083015261143f816110dd565b9050919050565b6000602082019050818103600083015261145f8161111d565b9050919050565b6000602082019050818103600083015261147f8161115d565b9050919050565b6000602082019050818103600083015261149f8161119d565b9050919050565b600060208201905081810360008301526114bf8161121d565b9050919050565b600060208201905081810360008301526114e0818461125d565b905092915050565b60006020820190506114fd60008301846112f8565b92915050565b6000604051905081810181811067ffffffffffffffff8211171561152a576115296117ef565b5b8060405250919050565b600067ffffffffffffffff82111561154f5761154e6117ef565b5b601f19601f8301169050602081019050919050565b600081519050919050565b600081905092915050565b600082825260208201905092915050565b600082825260208201905092915050565b60006115a782611635565b91506115b283611635565b92508261ffff038211156115c9576115c8611762565b5b828201905092915050565b60006115df82611635565b91506115ea83611635565b9250826115fa576115f9611791565b5b828204905092915050565b600061161082611643565b9050919050565b600061162282611643565b9050919050565b60008115159050919050565b600061ffff82169050919050565b600073ffffffffffffffffffffffffffffffffffffffff82169050919050565b6000819050919050565b600060ff82169050919050565b82818337600083830152505050565b60005b838110156116a757808201518184015260208101905061168c565b838111156116b6576000848401525b50505050565b600060028204905060018216806116d457607f821691505b602082108114156116e8576116e76117c0565b5b50919050565b60006116f982611635565b915061ffff82141561170e5761170d611762565b5b600182019050919050565b600061172482611663565b91507fffffffffffffffffffffffffffffffffffffffffffffffffffffffffffffffff82141561175757611756611762565b5b600182019050919050565b7f4e487b7100000000000000000000000000000000000000000000000000000000600052601160045260246000fd5b7f4e487b7100000000000000000000000000000000000000000000000000000000600052601260045260246000fd5b7f4e487b7100000000000000000000000000000000000000000000000000000000600052602260045260246000fd5b7f4e487b7100000000000000000000000000000000000000000000000000000000600052604160045260246000fd5b6000601f19601f8301169050919050565b61183881611605565b811461184357600080fd5b50565b61184f81611663565b811461185a57600080fd5b50565b6118668161166d565b811461187157600080fd5b5056fea2646970667358221220c572d2d2b1b53e78f1fb6708de0c2a447cc86174cabfbd38f0b0667464b5ae5664736f6c63430008000033",
  "immutableReferences": {},
  "source": "// SPDX-License-Identifier: MIT\r\npragma solidity ^0.8.0;\r\n\r\ncontract AIModelMarketplace {\r\n    struct Model {\r\n        string name;\r\n        string description;\r\n        uint256 price;\r\n        address payable creator;\r\n        uint16 totalRating; \r\n        uint16 numberOfRatings; \r\n    }\r\n\r\n    struct ModelDetails {\r\n        string name;\r\n        string description;\r\n        uint256 price;\r\n        address creator;\r\n        uint256 averageRating;\r\n    }\r\n\r\n    mapping(uint256 => Model) public models;\r\n    mapping(uint256 => mapping(address => bool)) public purchasers; \r\n    uint256 public modelCount = 0;\r\n\r\n    function listModel(string memory _name, string memory _description, uint256 _price) public {\r\n        require(bytes(_name).length > 0, \"Model name cannot be empty\");\r\n        require(bytes(_description).length > 0, \"Model description cannot be empty\");\r\n        require(_price > 0, \"Model price must be greater than zero\");\r\n\r\n        // Initialize a new model directly\r\n        models[modelCount] = Model(_name, _description, _price, payable(msg.sender), 0, 0);\r\n        \r\n        modelCount++;\r\n    }\r\n\r\n    function purchaseModel(uint256 _modelId) public payable {\r\n        Model storage model = models[_modelId];\r\n        require(msg.value == model.price, \"Incorrect payment amount\");\r\n        require(model.price > 0, \"Model not found or price not set\");\r\n\r\n        // Mark the model as purchased by this user\r\n        purchasers[_modelId][msg.sender] = true;\r\n\r\n        // Transfer funds to the model creator\r\n        (bool sent, ) = model.creator.call{value: msg.value}(\"\");\r\n        require(sent, \"Failed to send Ether\");\r\n    }\r\n\r\n    function rateModel(uint256 _modelId, uint8 _rating) public {\r\n        require(purchasers[_modelId][msg.sender], \"You must purchase the model before rating it\");\r\n        require(_rating >= 1 && _rating <= 5, \"Rating must be between 1 and 5\");\r\n\r\n        Model storage model = models[_modelId];\r\n        model.totalRating += uint16(_rating);\r\n        model.numberOfRatings++;\r\n    }\r\n\r\n    function getModelDetails(uint256 _modelId) public view returns (ModelDetails memory) {\r\n        Model storage model = models[_modelId];\r\n        uint256 averageRating = model.numberOfRatings > 0 ? model.totalRating / model.numberOfRatings : 0;\r\n        return ModelDetails(\r\n            model.name,\r\n            model.description,\r\n            model.price,\r\n            model.creator,\r\n            averageRating\r\n        );\r\n    }\r\n\r\n    function withdrawFunds() public {\r\n        require(msg.sender == models[0].creator, \"Only the contract owner can withdraw funds\");\r\n        payable(msg.sender).transfer(address(this).balance);\r\n    }\r\n}",
  "sourcePath": "D:\\Blockchain_Assignment2\\AIModelMarketplace\\contracts\\AIModelMarketplace.sol",
  "compiler": {
    "name": "solc",
    "version": "0.8.0+commit.c7dfd78e.Emscripten.clang"
  },
  "schemaVersion": "3.4.16",
  "updatedAt": "2024-09-28T14:12:40.681Z",
  "networkType": "ethereum",
  "devdoc": {
    "kind": "dev",
    "methods": {},
    "version": 1
  },
  "userdoc": {
    "kind": "user",
    "methods": {},
    "version": 1
  }
}