{
  "contractName": "AIModelMarketplace",
  "abi": [
    {
      "inputs": [],
      "name": "modelCount",
      "outputs": [
        {
          "internalType": "uint256",
          "name": "",
          "type": "uint256"
        }
      ],
      "stateMutability": "view",
      "type": "function",
      "constant": true
    },
    {
      "inputs": [
        {
          "internalType": "uint256",
          "name": "",
          "type": "uint256"
        }
      ],
      "name": "models",
      "outputs": [
        {
          "internalType": "string",
          "name": "name",
          "type": "string"
        },
        {
          "internalType": "string",
          "name": "description",
          "type": "string"
        },
        {
          "internalType": "uint256",
          "name": "price",
          "type": "uint256"
        },
        {
          "internalType": "address payable",
          "name": "creator",
          "type": "address"
        },
        {
          "internalType": "uint16",
          "name": "totalRating",
          "type": "uint16"
        },
        {
          "internalType": "uint16",
          "name": "numberOfRatings",
          "type": "uint16"
        }
      ],
      "stateMutability": "view",
      "type": "function",
      "constant": true
    },
    {
      "inputs": [
        {
          "internalType": "uint256",
          "name": "",
          "type": "uint256"
        },
        {
          "internalType": "address",
          "name": "",
          "type": "address"
        }
      ],
      "name": "purchasers",
      "outputs": [
        {
          "internalType": "bool",
          "name": "",
          "type": "bool"
        }
      ],
      "stateMutability": "view",
      "type": "function",
      "constant": true
    },
    {
      "inputs": [
        {
          "internalType": "string",
          "name": "_name",
          "type": "string"
        },
        {
          "internalType": "string",
          "name": "_description",
          "type": "string"
        },
        {
          "internalType": "uint256",
          "name": "_price",
          "type": "uint256"
        }
      ],
      "name": "listModel",
      "outputs": [],
      "stateMutability": "nonpayable",
      "type": "function"
    },
    {
      "inputs": [
        {
          "internalType": "uint256",
          "name": "_modelId",
          "type": "uint256"
        }
      ],
      "name": "purchaseModel",
      "outputs": [],
      "stateMutability": "payable",
      "type": "function",
      "payable": true
    },
    {
      "inputs": [
        {
          "internalType": "uint256",
          "name": "_modelId",
          "type": "uint256"
        },
        {
          "internalType": "uint8",
          "name": "_rating",
          "type": "uint8"
        }
      ],
      "name": "rateModel",
      "outputs": [],
      "stateMutability": "nonpayable",
      "type": "function"
    },
    {
      "inputs": [
        {
          "internalType": "uint256",
          "name": "_modelId",
          "type": "uint256"
        }
      ],
      "name": "getModelDetails",
      "outputs": [
        {
          "components": [
            {
              "internalType": "string",
              "name": "name",
              "type": "string"
            },
            {
              "internalType": "string",
              "name": "description",
              "type": "string"
            },
            {
              "internalType": "uint256",
              "name": "price",
              "type": "uint256"
            },
            {
              "internalType": "address",
              "name": "creator",
              "type": "address"
            },
            {
              "internalType": "uint256",
              "name": "averageRating",
              "type": "uint256"
            }
          ],
          "internalType": "struct AIModelMarketplace.ModelDetails",
          "name": "",
          "type": "tuple"
        }
      ],
      "stateMutability": "view",
      "type": "function",
      "constant": true
    },
    {
      "inputs": [],
      "name": "withdrawFunds",
      "outputs": [],
      "stateMutability": "nonpayable",
      "type": "function"
    }
  ],
  "bytecode": "0x6080604052600060025534801561001557600080fd5b5061194e806100256000396000f3fe60806040526004361061007b5760003560e01c806331fc042f1161004e57806331fc042f146101265780636a030ca914610163578063c6a645fe146101a5578063dc746862146101d05761007b565b806312ee1c0e14610080578063180ccf77146100a95780631c788a9a146100e657806324600fc31461010f575b600080fd5b34801561008c57600080fd5b506100a760048036038101906100a29190610df0565b6101ec565b005b3480156100b557600080fd5b506100d060048036038101906100cb9190610e98565b610409565b6040516100dd91906113a0565b60405180910390f35b3480156100f257600080fd5b5061010d60048036038101906101089190610ed4565b610438565b005b34801561011b57600080fd5b506101246105c2565b005b34801561013257600080fd5b5061014d60048036038101906101489190610e6f565b6106ae565b60405161015a919061156a565b60405180910390f35b34801561016f57600080fd5b5061018a60048036038101906101859190610e6f565b6108f3565b60405161019c969594939291906113bb565b60405180910390f35b3480156101b157600080fd5b506101ba610a7b565b6040516101c7919061158c565b60405180910390f35b6101ea60048036038101906101e59190610e6f565b610a81565b005b6000835111610230576040517f08c379a00000000000000000000000000000000000000000000000000000000081526004016102279061144a565b60405180910390fd5b6000825111610274576040517f08c379a000000000000000000000000000000000000000000000000000000000815260040161026b9061152a565b60405180910390fd5b600081116102b7576040517f08c379a00000000000000000000000000000000000000000000000000000000081526004016102ae906114aa565b60405180910390fd5b6040518060c001604052808481526020018381526020018281526020013373ffffffffffffffffffffffffffffffffffffffff168152602001600061ffff168152602001600061ffff1681525060008060025481526020019081526020016000206000820151816000019080519060200190610334929190610c61565b506020820151816001019080519060200190610351929190610c61565b506040820151816002015560608201518160030160006101000a81548173ffffffffffffffffffffffffffffffffffffffff021916908373ffffffffffffffffffffffffffffffffffffffff16021790555060808201518160030160146101000a81548161ffff021916908361ffff16021790555060a08201518160030160166101000a81548161ffff021916908361ffff160217905550905050600260008154809291906103ff906117bd565b9190505550505050565b60016020528160005260406000206020528060005260406000206000915091509054906101000a900460ff1681565b6001600083815260200190815260200160002060003373ffffffffffffffffffffffffffffffffffffffff1673ffffffffffffffffffffffffffffffffffffffff16815260200190815260200160002060009054906101000a900460ff166104d5576040517f08c379a00000000000000000000000000000000000000000000000000000000081526004016104cc9061148a565b60405180910390fd5b60018160ff16101580156104ed575060058160ff1611155b61052c576040517f08c379a00000000000000000000000000000000000000000000000000000000081526004016105239061150a565b60405180910390fd5b600080600084815260200190815260200160002090508160ff168160030160148282829054906101000a900461ffff166105669190611640565b92506101000a81548161ffff021916908361ffff16021790555080600301601681819054906101000a900461ffff16809291906105a290611792565b91906101000a81548161ffff021916908361ffff16021790555050505050565b60008080815260200190815260200160002060030160009054906101000a900473ffffffffffffffffffffffffffffffffffffffff1673ffffffffffffffffffffffffffffffffffffffff163373ffffffffffffffffffffffffffffffffffffffff1614610665576040517f08c379a000000000000000000000000000000000000000000000000000000000815260040161065c9061142a565b60405180910390fd5b3373ffffffffffffffffffffffffffffffffffffffff166108fc479081150290604051600060405180830381858888f193505050501580156106ab573d6000803e3d6000fd5b50565b6106b6610ce7565b60025482106106fa576040517f08c379a00000000000000000000000000000000000000000000000000000000081526004016106f19061146a565b60405180910390fd5b600080600084815260200190815260200160002090506000808260030160169054906101000a900461ffff1661ffff1611610736576000610767565b8160030160169054906101000a900461ffff168260030160149054906101000a900461ffff166107669190611678565b5b61ffff1690506040518060a0016040528083600001805461078790611760565b80601f01602080910402602001604051908101604052809291908181526020018280546107b390611760565b80156108005780601f106107d557610100808354040283529160200191610800565b820191906000526020600020905b8154815290600101906020018083116107e357829003601f168201915b5050505050815260200183600101805461081990611760565b80601f016020809104026020016040519081016040528092919081815260200182805461084590611760565b80156108925780601f1061086757610100808354040283529160200191610892565b820191906000526020600020905b81548152906001019060200180831161087557829003601f168201915b50505050508152602001836002015481526020018360030160009054906101000a900473ffffffffffffffffffffffffffffffffffffffff1673ffffffffffffffffffffffffffffffffffffffff1681526020018281525092505050919050565b600060205280600052604060002060009150905080600001805461091690611760565b80601f016020809104026020016040519081016040528092919081815260200182805461094290611760565b801561098f5780601f106109645761010080835404028352916020019161098f565b820191906000526020600020905b81548152906001019060200180831161097257829003601f168201915b5050505050908060010180546109a490611760565b80601f01602080910402602001604051908101604052809291908181526020018280546109d090611760565b8015610a1d5780601f106109f257610100808354040283529160200191610a1d565b820191906000526020600020905b815481529060010190602001808311610a0057829003601f168201915b5050505050908060020154908060030160009054906101000a900473ffffffffffffffffffffffffffffffffffffffff16908060030160149054906101000a900461ffff16908060030160169054906101000a900461ffff16905086565b60025481565b6000806000838152602001908152602001600020905080600201543414610add576040517f08c379a0000000000000000000000000000000000000000000000000000000008152600401610ad4906114ea565b60405180910390fd5b6000816002015411610b24576040517f08c379a0000000000000000000000000000000000000000000000000000000008152600401610b1b9061154a565b60405180910390fd5b600180600084815260200190815260200160002060003373ffffffffffffffffffffffffffffffffffffffff1673ffffffffffffffffffffffffffffffffffffffff16815260200190815260200160002060006101000a81548160ff02191690831515021790555060008160030160009054906101000a900473ffffffffffffffffffffffffffffffffffffffff1673ffffffffffffffffffffffffffffffffffffffff1634604051610bd69061138b565b60006040518083038185875af1925050503d8060008114610c13576040519150601f19603f3d011682016040523d82523d6000602084013e610c18565b606091505b5050905080610c5c576040517f08c379a0000000000000000000000000000000000000000000000000000000008152600401610c53906114ca565b60405180910390fd5b505050565b828054610c6d90611760565b90600052602060002090601f016020900481019282610c8f5760008555610cd6565b82601f10610ca857805160ff1916838001178555610cd6565b82800160010185558215610cd6579182015b82811115610cd5578251825591602001919060010190610cba565b5b509050610ce39190610d2c565b5090565b6040518060a00160405280606081526020016060815260200160008152602001600073ffffffffffffffffffffffffffffffffffffffff168152602001600081525090565b5b80821115610d45576000816000905550600101610d2d565b5090565b6000610d5c610d57846115d8565b6115a7565b905082815260208101848484011115610d7457600080fd5b610d7f84828561171e565b509392505050565b600081359050610d96816118d3565b92915050565b600082601f830112610dad57600080fd5b8135610dbd848260208601610d49565b91505092915050565b600081359050610dd5816118ea565b92915050565b600081359050610dea81611901565b92915050565b600080600060608486031215610e0557600080fd5b600084013567ffffffffffffffff811115610e1f57600080fd5b610e2b86828701610d9c565b935050602084013567ffffffffffffffff811115610e4857600080fd5b610e5486828701610d9c565b9250506040610e6586828701610dc6565b9150509250925092565b600060208284031215610e8157600080fd5b6000610e8f84828501610dc6565b91505092915050565b60008060408385031215610eab57600080fd5b6000610eb985828601610dc6565b9250506020610eca85828601610d87565b9150509250929050565b60008060408385031215610ee757600080fd5b6000610ef585828601610dc6565b9250506020610f0685828601610ddb565b9150509250929050565b610f19816116bb565b82525050565b610f28816116a9565b82525050565b610f37816116cd565b82525050565b6000610f4882611608565b610f52818561161e565b9350610f6281856020860161172d565b610f6b816118c2565b840191505092915050565b6000610f8182611608565b610f8b818561162f565b9350610f9b81856020860161172d565b610fa4816118c2565b840191505092915050565b6000610fbc602a8361162f565b91507f4f6e6c792074686520636f6e7472616374206f776e65722063616e207769746860008301527f647261772066756e6473000000000000000000000000000000000000000000006020830152604082019050919050565b6000611022601a8361162f565b91507f4d6f64656c206e616d652063616e6e6f7420626520656d7074790000000000006000830152602082019050919050565b600061106260178361162f565b91507f4d6f64656c20494420646f6573206e6f742065786973740000000000000000006000830152602082019050919050565b60006110a2602c8361162f565b91507f596f75206d75737420707572636861736520746865206d6f64656c206265666f60008301527f726520726174696e6720697400000000000000000000000000000000000000006020830152604082019050919050565b600061110860258361162f565b91507f4d6f64656c207072696365206d7573742062652067726561746572207468616e60008301527f207a65726f0000000000000000000000000000000000000000000000000000006020830152604082019050919050565b600061116e60148361162f565b91507f4661696c656420746f2073656e642045746865720000000000000000000000006000830152602082019050919050565b60006111ae60188361162f565b91507f496e636f7272656374207061796d656e7420616d6f756e7400000000000000006000830152602082019050919050565b60006111ee601e8361162f565b91507f526174696e67206d757374206265206265747765656e203120616e64203500006000830152602082019050919050565b600061122e60218361162f565b91507f4d6f64656c206465736372697074696f6e2063616e6e6f7420626520656d707460008301527f79000000000000000000000000000000000000000000000000000000000000006020830152604082019050919050565b6000611294600083611613565b9150600082019050919050565b60006112ae60208361162f565b91507f4d6f64656c206e6f7420666f756e64206f72207072696365206e6f74207365746000830152602082019050919050565b600060a08301600083015184820360008601526112fe8282610f3d565b915050602083015184820360208601526113188282610f3d565b915050604083015161132d604086018261136d565b5060608301516113406060860182610f1f565b506080830151611353608086018261136d565b508091505092915050565b611367816116d9565b82525050565b61137681611707565b82525050565b61138581611707565b82525050565b600061139682611287565b9150819050919050565b60006020820190506113b56000830184610f2e565b92915050565b600060c08201905081810360008301526113d58189610f76565b905081810360208301526113e98188610f76565b90506113f8604083018761137c565b6114056060830186610f10565b611412608083018561135e565b61141f60a083018461135e565b979650505050505050565b6000602082019050818103600083015261144381610faf565b9050919050565b6000602082019050818103600083015261146381611015565b9050919050565b6000602082019050818103600083015261148381611055565b9050919050565b600060208201905081810360008301526114a381611095565b9050919050565b600060208201905081810360008301526114c3816110fb565b9050919050565b600060208201905081810360008301526114e381611161565b9050919050565b60006020820190508181036000830152611503816111a1565b9050919050565b60006020820190508181036000830152611523816111e1565b9050919050565b6000602082019050818103600083015261154381611221565b9050919050565b60006020820190508181036000830152611563816112a1565b9050919050565b6000602082019050818103600083015261158481846112e1565b905092915050565b60006020820190506115a1600083018461137c565b92915050565b6000604051905081810181811067ffffffffffffffff821117156115ce576115cd611893565b5b8060405250919050565b600067ffffffffffffffff8211156115f3576115f2611893565b5b601f19601f8301169050602081019050919050565b600081519050919050565b600081905092915050565b600082825260208201905092915050565b600082825260208201905092915050565b600061164b826116d9565b9150611656836116d9565b92508261ffff0382111561166d5761166c611806565b5b828201905092915050565b6000611683826116d9565b915061168e836116d9565b92508261169e5761169d611835565b5b828204905092915050565b60006116b4826116e7565b9050919050565b60006116c6826116e7565b9050919050565b60008115159050919050565b600061ffff82169050919050565b600073ffffffffffffffffffffffffffffffffffffffff82169050919050565b6000819050919050565b600060ff82169050919050565b82818337600083830152505050565b60005b8381101561174b578082015181840152602081019050611730565b8381111561175a576000848401525b50505050565b6000600282049050600182168061177857607f821691505b6020821081141561178c5761178b611864565b5b50919050565b600061179d826116d9565b915061ffff8214156117b2576117b1611806565b5b600182019050919050565b60006117c882611707565b91507fffffffffffffffffffffffffffffffffffffffffffffffffffffffffffffffff8214156117fb576117fa611806565b5b600182019050919050565b7f4e487b7100000000000000000000000000000000000000000000000000000000600052601160045260246000fd5b7f4e487b7100000000000000000000000000000000000000000000000000000000600052601260045260246000fd5b7f4e487b7100000000000000000000000000000000000000000000000000000000600052602260045260246000fd5b7f4e487b7100000000000000000000000000000000000000000000000000000000600052604160045260246000fd5b6000601f19601f8301169050919050565b6118dc816116a9565b81146118e757600080fd5b50565b6118f381611707565b81146118fe57600080fd5b50565b61190a81611711565b811461191557600080fd5b5056fea2646970667358221220ea452d76729753fdc7eebbe845e920a4e18b3df8b8bf269dee8aa08e648ad10e64736f6c63430008000033",
  "immutableReferences": {},
  "source": "// SPDX-License-Identifier: MIT\r\npragma solidity ^0.8.0;\r\n\r\ncontract AIModelMarketplace {\r\n    struct Model {\r\n        string name;\r\n        string description;\r\n        uint256 price;\r\n        address payable creator;\r\n        uint16 totalRating; \r\n        uint16 numberOfRatings; \r\n    }\r\n\r\n    struct ModelDetails {\r\n        string name;\r\n        string description;\r\n        uint256 price;\r\n        address creator;\r\n        uint256 averageRating;\r\n    }\r\n\r\n    mapping(uint256 => Model) public models;\r\n    mapping(uint256 => mapping(address => bool)) public purchasers; \r\n    uint256 public modelCount = 0;\r\n\r\n    function listModel(string memory _name, string memory _description, uint256 _price) public {\r\n        require(bytes(_name).length > 0, \"Model name cannot be empty\");\r\n        require(bytes(_description).length > 0, \"Model description cannot be empty\");\r\n        require(_price > 0, \"Model price must be greater than zero\");\r\n\r\n        // Initialize a new model directly\r\n        models[modelCount] = Model(_name, _description, _price, payable(msg.sender), 0, 0);\r\n        \r\n        modelCount++;\r\n    }\r\n\r\n    function purchaseModel(uint256 _modelId) public payable {\r\n        Model storage model = models[_modelId];\r\n        require(msg.value == model.price, \"Incorrect payment amount\");\r\n        require(model.price > 0, \"Model not found or price not set\");\r\n\r\n        // Mark the model as purchased by this user\r\n        purchasers[_modelId][msg.sender] = true;\r\n\r\n        // Transfer funds to the model creator\r\n        (bool sent, ) = model.creator.call{value: msg.value}(\"\");\r\n        require(sent, \"Failed to send Ether\");\r\n    }\r\n\r\n    function rateModel(uint256 _modelId, uint8 _rating) public {\r\n        require(purchasers[_modelId][msg.sender], \"You must purchase the model before rating it\");\r\n        require(_rating >= 1 && _rating <= 5, \"Rating must be between 1 and 5\");\r\n\r\n        Model storage model = models[_modelId];\r\n        model.totalRating += uint16(_rating);\r\n        model.numberOfRatings++;\r\n    }\r\n\r\n    function getModelDetails(uint256 _modelId) public view returns (ModelDetails memory) {\r\n    require(_modelId < modelCount, \"Model ID does not exist\");\r\n    \r\n    Model storage model = models[_modelId];\r\n    uint256 averageRating = model.numberOfRatings > 0 ? model.totalRating / model.numberOfRatings : 0;\r\n    \r\n    return ModelDetails(\r\n        model.name,\r\n        model.description,\r\n        model.price,\r\n        model.creator,\r\n        averageRating\r\n    );\r\n}\r\n\r\n\r\n\r\n    function withdrawFunds() public {\r\n        require(msg.sender == models[0].creator, \"Only the contract owner can withdraw funds\");\r\n        payable(msg.sender).transfer(address(this).balance);\r\n    }\r\n}",
  "sourcePath": "D:\\Blockchain_Assignment2\\AIModelMarketplace\\contracts\\AIModelMarketplace.sol",
  "compiler": {
    "name": "solc",
    "version": "0.8.0+commit.c7dfd78e.Emscripten.clang"
  },
  "schemaVersion": "3.4.16",
  "updatedAt": "2024-09-30T06:48:11.144Z",
  "networkType": "ethereum",
  "devdoc": {
    "kind": "dev",
    "methods": {},
    "version": 1
  },
  "userdoc": {
    "kind": "user",
    "methods": {},
    "version": 1
  }
}